:030000000200BB40
:0C00BB00787FE4F6D8FD75810902004949
:1000A2003F065B4F666D7D077F6F777C395E7971A6
:0900B2007638373E735C40000013
:10008400D3EF9400EE940040147D727C00ED1D705B
:0D009400011CED4C70F7EF1F70E61E80E3BD
:0100A100223C
:10000300EF75F00A84FEEF75F00A84ABF07580FF9C
:10001300D2A77580FEC2A7D2A6AF06EF9000A29327
:10002300F580C2A67F057E001200847580FFD2A7EB
:100033007580FDC2A7D2A6AF03EF93F580C2A67F5A
:06004300057E00020084AE
:10004900D28E758910758D4B758BFC308F0A758D25
:100059004B758BFCC28F0508E508B41405E4F50857
:100069000509AF09120003E509B414DFC28EC2A362
:0B0079007FA07E0F120084D2A380FE47
:00000001FF
