:03000000020003F8
:0C000300787FE4F6D8FD75811F02004AEA
:1000B4000B15C0A4998280F9B092F890010B083F07
:0E00C400065B4F666D7D077F6F010213000023
:1000D300EF1FAA0670011E4A600BE4FDEDC394787E
:0500E30050EE0D80F756
:0100E80022F5
:10008F0074082514F8E6F5807FF47E011200D3057D
:10009F0014E514700205132408F8E6B401E2E4F540
:0500AF0013F51480DBD5
:10000F0002008FE493A3F8E493A34003F68001F278
:10001F0008DFF48029E493A3F85407240CC8C333F2
:10002F00C4540F4420C8834004F456800146F6DFC1
:10003F00E4800B01020408102040809000B4E47E9D
:10004F00019360BCA3FF543F30E509541FFEE493B6
:10005F00A360010ECF54C025E060A840B8E493A37D
:10006F00FAE493A3F8E493A3C8C582C8CAC583CAA8
:10007F00F0A3C8C582C8CAC583CADFE9DEE780BE60
:0100D200002D
:00000001FF
