:03000000020003F8
:0C000300787FE4F6D8FD75811902004AF0
:1000D6001008FEFDFBF7EFDFBF7F7FBFDFEFF7FB0B
:0200E600FDFE1D
:1000C000EF1FAA0670011E4A600BE4FDEDC3947891
:0500D00050EE0D80F769
:0100D5002208
:10008F007590FE7FF47E011200C0E4F518F5197427
:10009F00082519F8E6F5907FF47E011200C00519C6
:1000AF00E51970020518C39410E518940040E0801C
:0100BF00D26E
:10000F0002008FE493A3F8E493A34003F68001F278
:10001F0008DFF48029E493A3F85407240CC8C333F2
:10002F00C4540F4420C8834004F456800146F6DFC1
:10003F00E4800B01020408102040809000D6E47E7B
:10004F00019360BCA3FF543F30E509541FFEE493B6
:10005F00A360010ECF54C025E060A840B8E493A37D
:10006F00FAE493A3F8E493A3C8C582C8CAC583CAA8
:10007F00F0A3C8C582C8CAC583CADFE9DEE780BE60
:0100E8000017
:00000001FF
