:020000040800F2
:1000000098070020D12A0008CB010008CD01000884
:10001000D1010008D5010008D90100080000000046
:10002000000000000000000000000000DD010008EA
:10003000DF01000800000000E10100082F130008A4
:10004000EB2A0008EB2A0008EB2A0008EB2A00083C
:10005000EB2A0008EB2A0008EB2A0008EB2A00082C
:10006000EB2A0008EB2A0008EB2A0008EB2A00081C
:10007000EB2A0008EB2A0008EB2A0008EB2A00080C
:10008000EB2A0008EB2A0008EB2A0008EB2A0008FC
:10009000EB2A0008EB2A0008EB2A000841130008AD
:1000A000EB2A0008EB2A0008EB2A0008EB2A0008DC
:1000B000EB2A0008EB2A0008EB2A0008EB2A0008CC
:1000C000EB2A0008EB2A0008EB2A0008EB2A0008BC
:1000D000EB2A000885120008EB2A0008EB2A00082A
:1000E000EB2A0008EB2A0008EB2A0008EB2A00089C
:1000F000EB2A0008EB2A0008EB2A0008EB2A00088C
:10010000EB2A0008EB2A0008EB2A0008EB2A00087B
:10011000EB2A0008EB2A0008EB2A0008EB2A00086B
:10012000EB2A0008EB2A0008EB2A0008EB2A00085B
:1001300000F002F800F03AF80AA090E8000C8244BF
:100140008344AAF10107DA4501D100F02FF8AFF29C
:10015000090EBAE80F0013F0010F18BFFB1A43F0A5
:1001600001031847F840000018410000103A24BF6E
:1001700078C878C1FAD8520724BF30C830C144BF0C
:1001800004680C607047000000230024002500264E
:10019000103A28BF78C1FBD8520728BF30C148BFEA
:1001A0000B6070471FB51FBD10B510BD02F0B5FC48
:1001B0001146FFF7F7FF00F015F802F0D3FC03B487
:1001C000FFF7F2FF03BC01F003F8704700BFFEE742
:1001D00000BFFEE700BFFEE700BFFEE770477047C5
:1001E0007047000002F06BFB01F019FA01F038FFD4
:1001F00001F01AFF01F050FF01F06AFF02F082FAED
:1002000056E001F085FEB8B92A49092001F0A4FEA4
:10021000E0B902F094FA4FF48071274800F069FACF
:10022000264800F0CBFF4FF48071234800F063FABA
:10023000224800F0C3FF09E021A27021A02002F0B3
:10024000E3F91FA29021A02002F0DEF92248006805
:1002500008BB4FF40061214800F04BFA0123C8228B
:100260001946184602F0F2F902234FF4C8721946F3
:10027000012002F0EBF9002207210A2002F096F992
:100280000E4800F09BFF4FF40061144800F033FA71
:100290000A4800F093FF1248006848B908A270218C
:1002A000A02002F0B1F906A29021A02002F0ACF942
:1002B000A7E70000000000200010014040420F00AE
:1002C000202020202020202020202020202020202E
:1002D000202020202020200008012442001401407A
:1002E0000C01244231490143314A1160704770B515
:1002F000002100230F22C4780CB32D4C246804F491
:10030000E064C4F5E064210AC1F10403CA40447802
:1003100004FA03F18478144021430901254C06783E
:10032000A155047804F01F050124AC4005786D1137
:100330004FF0E02606EB8505C5F8004109E004789A
:1003400004F01F050124AC401B4D0678761145F8DA
:10035000264070BD194A0A400243154B1B1F1A6004
:10036000704739B1124A121D12680243104B1B1D0F
:100370001A6006E00E4A121D126882430C4B1B1DC8
:100380001A607047042808D14FF0E021096941F054
:1003900004014FF0E022116107E04FF0E02109690C
:1003A00021F004014FF0E022116170470000FA05CE
:1003B0000CED00E000E400E080E100E080FFFF1FC2
:1003C000002044490860091D0860091D0860091DD6
:1003D000086041483F4914310860704700213D4999
:1003E0008279002A3AD00A46126803689A430B467B
:1003F0001A600A1D126803689A430B1D1A6002797D
:1004000011440A6803681A430A60324A08321268C3
:1004100003689A432F4B08331A601A1D1268036849
:100420009A432C4B0C331A604279102A0ED11A1FB2
:10043000126803681A43274B08331A601A1D1268A2
:1004400003681A43234B0C331A600DE021494279AB
:1004500011440A6803681A430A6005E002791144EE
:100460000A6803689A430A607047002101600171BD
:100470000C214171002181717047164910310968C2
:100480000143144A10321160704701460020114A9E
:10049000143212680A4201D0012000E000207047A7
:1004A0000C49143108607047014600200022094BB6
:1004B0001B6803EA0102074B14331B680B4202D08E
:1004C0000AB1012000E000207047024914310860A1
:1004D0007047000000040140FFFF0F0010B5044604
:1004E000CA48844208D10121042000F027FB0021E2
:1004F000042000F023FB46E0C548844208D10121D6
:10050000082000F01BFB0021082000F017FB3AE058
:10051000C048844208D10121102000F00FFB0021C7
:10052000102000F00BFB2EE0BB48844208D10121D3
:10053000202000F003FB0021202000F0FFFA22E041
:10054000B648844208D10121402000F0F7FA00218A
:10055000402000F0F3FA16E0B148844208D10121AE
:10056000802000F0EBFA0021802000F0E7FA0AE09A
:10057000AC48844207D10121801500F0DFFA002148
:10058000A01500F0DBFA10BD10B50121084600F0FF
:10059000D5FA0021012000F0D1FA10BD2DE9F0417B
:1005A000024600250026002000230024002791F8A1
:1005B00003C00CF00F0591F803C01CF0100F03D01E
:1005C00091F802C04CEA050591F800C0BCF1000F9B
:1005D00031D0146800202BE04FF0010C0CFA00F32E
:1005E000B1F800C00CEA03069E4220D183004FF010
:1005F0000F0C0CFA03F7BC4305FA03FC4CEA0404A5
:1006000091F803C0BCF1280F06D14FF0010C0CFA91
:1006100000FCC2F814C00AE091F803C0BCF1480F16
:1006200005D14FF0010C0CFA00FCC2F810C0401CC0
:100630000828D1D31460B1F800C0BCF1FF0F34DD3D
:10064000546800202EE000F1080C4FF0010808FA71
:100650000CF3B1F800C00CEA03069E4221D18300DE
:100660004FF00F0C0CFA03F7BC4305FA03FC4CEAFD
:10067000040491F803C0BCF1280F05D100F1080C67
:1006800008FA0CF8C2F8148091F803C0BCF1480FC6
:1006900007D100F1080C4FF0010808FA0CF8C2F875
:1006A0001080401C0828CED35460BDE8F0814FF67E
:1006B000FF710180022181700421C17070470246E0
:1006C000002093680B4201D0012000E00020704719
:1006D0000146886880B2704702460020D3680B420A
:1006E00001D0012000E0002070470146C86880B2B8
:1006F000704701617047416170470AB1016100E0D4
:1007000041617047C16070474FF480320A43826193
:100710008161826182698269704702460020424B92
:1007200018684FF68073184040EA021008433E4BA9
:10073000186070473D49C8617047F0B50A4600230C
:1007400000240021002500F00046B6F1004F02D140
:10075000354EF16901E0344E7168C0F3034583B250
:1007600000F44016B6F5401F08D121F070612E4EFE
:10077000766826F070662C4F7E6012E000F48016DA
:10078000B6F5801F06D1032606FA05F4A14341F011
:10079000706106E0460D360103FA06F6B14341F0FA
:1007A000706122B1460D360103FA06F6314300F0BE
:1007B0000046B6F1004F02D11B4EF16101E01A4E26
:1007C0007160F0BD30B500228B071C0F0F2303FAB8
:1007D00004F2154B08338C1053F824309343124C19
:1007E00008348D1044F8253023468C1053F82430FB
:1007F0008C07240F00FA04F423430B4C08348D10AB
:1008000044F8253030BD0A490860704700080140AF
:10081000000C01400010014000140140001801408C
:10082000001C014000200140000001400000204267
:10083000DC002042DD48006840F00100DB49086030
:1008400008464068DA490840D849486008460068C8
:10085000D8490840D54908600846006820F480203F
:1008600008600846406820F4FE0048604FF41F000E
:1008700088607047CD49096821F48031CB4A116006
:100880001146096821F480211160B0F5803F03D042
:10089000B0F5802F0ED106E0C449096841F48031DB
:1008A000C24A116007E0C149096841F4A021BF4A6A
:1008B000116000E000BF00BF704710B50146002284
:1008C000002300204A11012A02D1B84C236806E017
:1008D000022A02D1B54C236A01E0B44C636A01F0EC
:1008E0001F02012494401C4201D0012000E000209E
:1008F00010BD38B5002000900024002500BF312035
:10090000FFF7DBFF05460098401C00900098B0F50B
:10091000A06F01D0002DF2D03120FFF7CEFF08B13B
:10092000012400E00024204638BD014600209F4AF3
:10093000106820F0F80040EAC100106070479E493E
:100940000860704702460020984B586820F47C10DD
:1009500042EA01031843954B586070479649086670
:10096000704701460020914A506820F00300084378
:10097000506070478D48406800F00C007047014699
:1009800000208A4A506820F0F00008435060704709
:1009900001460020854A506820F4E060084350601A
:1009A000704701460020814A506820F4605040EAB8
:1009B000C1005060704729B17C4A527A02437B4B98
:1009C0005A7204E0794A527A8243784B5A727047DD
:1009D0007A490860704701460020744A506820F444
:1009E00040400843506070470021754A11706F4ABB
:1009F00082F82010012802D0042808D103E0012148
:100A00006F4A117004E005216D4A117000E000BFCB
:100A100000BF70476B49086070476449096A014329
:100A2000624A11627047674944390860704730B5BF
:100A300000210022002400235C4D6D6805F00C01AC
:100A400021B1042905D0082923D105E05E4D0560B8
:100A500022E05D4D05601FE0544D6D6805F4701295
:100A6000524D6D6805F48034022505EB92421CB9A5
:100A7000564D554305600BE04C4D6D6815F4003F35
:100A800003D0524D5543056002E04F4D554305607C
:100A900002E04D4D056000BF00BF444D6D6805F09C
:100AA000F00109094A4D6B5C0568DD4045603F4D2A
:100AB0006D6805F4E061090A454D6B5C4568DD40F1
:100AC00085603A4D6D6805F46051C90A404D6B5C14
:100AD0004568DD40C560354D6D6805F44041890BC2
:100AE0003C4D6B5CC568B5FBF3F5056130BD29B1C4
:100AF0002E4A526902432D4B5A6104E02B4A526937
:100B000082432A4B5A61704729B1284A92690243AD
:100B1000264B9A6104E0254A92698243234B9A61ED
:100B2000704729B1214AD2690243204BDA6104E0BF
:100B30001E4AD26982431D4BDA61704729B11B4AB4
:100B4000D2680243194BDA6004E0184AD268824343
:100B5000164BDA60704729B1144A12690243134BED
:100B60001A6104E0114A12698243104B1A617047FE
:100B700014494039086070470F49C86470470B49F1
:100B8000C87170470948406A40F080700749486260
:100B9000704701460020054A92680A4201D00120B0
:100BA00000E0002070470149887270470010024041
:100BB0000000FFF8FFFFF6FE00004242D80042426C
:100BC000201002408004424200127A0000093D00D9
:100BD000060000201600002010B50446FB488442A1
:100BE00009D101218803FFF7A9FF00214FF48040BC
:100BF000FFF7A4FF32E0F648844209D101214804FE
:100C0000FFF7A9FF00214FF40030FFF7A4FF25E014
:100C1000F048844209D101218804FFF79CFF00219C
:100C20004FF48020FFF797FF18E0EB48844209D18A
:100C30000121C804FFF78FFF00214FF40020FFF7C8
:100C40008AFF0BE0E548844208D101210805FFF73F
:100C500082FF00214FF48010FFF77DFF10BD2DE9CA
:100C6000F04786B005460E460024A24600BFA146C6
:100C70000027B08900B100BF2F462C8A4CF6FF70C8
:100C80000440F08804432C82AC894EF6F3100440F3
:100C9000B08831890843718908430443AC81AC8A28
:100CA0004FF6FF400440B0890443AC8201A8FFF72F
:100CB000BEFEC648874202D1DDF810A001E0DDF893
:100CC0000CA0A88910F4004F08D00AEBCA0000EB72
:100CD0000A1031684900B0FBF1F807E00AEBCA00DE
:100CE00000EB0A1031688900B0FBF1F86420B8FB12
:100CF000F0F004012009642101FB1089A88910F497
:100D0000004F08D0322000EBC900B0FBF1F000F03A
:100D10000700044308E0322000EB09106421B0FB17
:100D2000F1F000F00F0004432C8106B0BDE8F0871D
:100D30004FF41651016000218180C18001810C2196
:100D4000418100218181704710B502460020108A40
:100D50004FF2FF0318400B884C8823438C882343B1
:100D6000CC8823431843108210BD002101804180AC
:100D70008180C180704721B1828942F40052828112
:100D800004E082894DF6FF731A4082817047F0B506
:100D900003460024002600250020A1F510676A3FC5
:100DA00000D100BF1846C1F3421401F01F0601270D
:100DB00007FA06F5012C01D10C3004E0022C01D118
:100DC000103000E014301AB107682F43076002E0CA
:100DD0000768AF430760F0BD1AB1838A0B43838273
:100DE00002E0838A8B4383827047028A4FF6F07356
:100DF0001A400282028A0A430282704782894FF2B5
:100E0000FF731A40828182890A438281704721B12F
:100E1000828942F00202828104E082894FF6FD73EA
:100E20001A4082817047028A4FF6DF731A400282AD
:100E3000028A0A430282704721B1028A42F4804248
:100E4000028204E0028A4BF6FF731A400282704766
:100E5000C1F308028280704701468888C0F3080009
:100E60007047818941F0010181817047028BD2B2C4
:100E70000283028B42EA012202837047028B02F452
:100E80007F420283028B0A430283704721B1828A28
:100E900042F02002828204E0828A4FF6DF731A4019
:100EA0008282704721B1828A42F01002828204E07D
:100EB000828A4FF6EF731A408282704721B1828A8C
:100EC00042F00802828204E0828A4FF6F7731A40E9
:100ED0008282704721B1828942F40042828103E01C
:100EE0008289C2F30E028281704721B1828A42F464
:100EF0000062828204E0828A4FF2FF731A4082828B
:100F00007047828A4FF6FB731A408282828A0A43B4
:100F10008282704721B1828A42F00202828204E01A
:100F2000828A4FF6FD731A40828270470246002083
:100F3000B1F5007F00D100BF13880B4201D0012022
:100F400000E00020704701F40072B2F5007F00D18C
:100F500000BFCA430280704770B5024600240023D8
:100F600000250020A1F510666A3E00D100BFC1F344
:100F7000421501F01F03012606FA03F3012D02D1E9
:100F80009689334006E0022D02D1168A334001E0F3
:100F9000968A33400C12012606FA04F4168834406F
:100FA00013B10CB1012000E0002070BD10B500228B
:100FB0000023A1F510646A3C00D100BF0A1201248D
:100FC0009440A3B2DC43048010BD0000003801400F
:100FD0000044004000480040004C004000500040E9
:100FE0000CB50020019000906B48006840F4803000
:100FF0006949086000BF6848006800F4003000904C
:101000000198401C0190009818B90198B0F5A06FA4
:10101000F1D16148006810F4003F02D00120009037
:1010200001E0002000900098012842D15B48006850
:1010300040F01000594908600846006820F003009D
:1010400008600846006840F00200086052484068A6
:10105000514948600846406848600846406840F486
:10106000806048600846406820F47C10486008466C
:10107000406840F4E81048600846006840F080701E
:10108000086000BF4448006810F0007FFAD0424872
:10109000406820F00300404948600846406840F03E
:1010A0000200486000BF3C48406800F00C0008287F
:1010B000F9D10CBD10B5FFF793FF10BD10B5364840
:1010C000006840F00100344908600846406834492F
:1010D00008403149486008460068324908402E49B6
:1010E00008600846006820F48020086008464068D0
:1010F00020F4FE0048604FF41F008860FFF7DAFF1D
:101100004FF000602849086010BD10B50021002094
:101110000022214B5B6803F00C0121B1042906D0A9
:10112000082928D107E0214B214C236027E01F4BE1
:101130001F4C236023E0184B5B6803F47010164BC0
:101140005B6803F48032022303EB904022B9194B11
:101150004343174C23600DE00F4B5B6813F4003FD3
:1011600004D0144B4343124C236003E00F4B434322
:101170000F4C236003E00D4B0D4C236000BF00BFFC
:10118000054B5B68C3F303130B4CE15C084B1B6816
:10119000CB40074C236010BD0010024000200240ED
:1011A0000000FFF8FFFFF6FE08ED00E000127A00F5
:1011B0001C00002000093D002000002001B502E0D5
:1011C0000098401E009000980028F9D108BD00004A
:1011D000014600BF704700BF494A128812F0400F15
:1011E000FAD0C2B2464B1B1D1A80704710B586B0AC
:1011F0000446012144F20400FFF786FC4FF400701E
:10120000ADF8140003208DF8160018208DF8170093
:1012100005A93C48FFF7C2F94FF48060ADF814000F
:1012200004208DF8170005A93648FFF7B7F92520E7
:101230008DF8000003208DF801008DF802000120D8
:101240008DF803006846FFF752F801940020ADF8CE
:101250000800ADF80A00ADF80C00ADF810000C2045
:10126000ADF80E0001A92648FFF7F9FC012240F273
:1012700025512348FFF78BFD01212148FFF77BFD16
:1012800006B010BD10B540F225511D48FFF764FEB1
:1012900010B31B48FFF7E0FDC4B21B48008810F4F0
:1012A000004F2BD11848008810F4804F0CD00A2C26
:1012B00003D000201449088020E01348008840F43F
:1012C00000401149088019E00D2C06D10E48008815
:1012D00040F480400C49088010E00B480088C0F3BF
:1012E0000D000A490C5408480088401C0649088033
:1012F00008460088C72801DD0020088010BD0000D6
:101300000038014000080140300000206C0000203F
:1013100002E000BF411EC8B20028FADC7047FA495B
:10132000088000BFF84909880029FBD17047F648BA
:10133000008820B1F4480088401EF34908807047B7
:1013400010B54FF40070FFF7AFF830B14FF40070F4
:10135000FFF7BBF80120ED49087010BD10B5044639
:101360004FF4FF61EA48FFF7C6F92006410DE8484F
:10137000FFF7BFF910BD08B54FF4FF60ADF80000EE
:1013800010208DF8030003208DF802006946E04824
:10139000FFF704F91020FFF7BBFF08BD70B5054645
:1013A0000C468021DB48FFF7A6F94FF48051D9485D
:1013B000FFF79FF94FF48071D648FFF79AF94FF481
:1013C0000061D448FFF795F9FFF7D5FF2846FFF7EE
:1013D000C5FF0820FFF79CFF8021CE48FFF78BF95F
:1013E0000820FFF795FF8021CA48FFF782F90820FF
:1013F000FFF78EFF8021C748FFF77DF90820FFF730
:1014000087FF4FF48051C348FFF775F90420FFF7B9
:101410007FFF2046FFF7A2FF0820FFF779FF4FF478
:101420008071BC48FFF767F91820FFF771FF4FF490
:101430008071B848FFF75DF90420FFF769FF4FF4AA
:101440008051B448FFF755F92020FFF761FF70BDC8
:1014500010B50024AE48FFF73BF9C0F3C70420469F
:1014600010BD08B54FF4FF60ADF8000048208DF8BE
:1014700003006946A648FFF791F81020FFF748FFE0
:1014800008BD70B504460025FFF775FF2046FFF73D
:1014900065FF0820FFF73CFF80219E48FFF72BF9EE
:1014A0000820FFF735FF80219A48FFF722F908202E
:1014B000FFF72EFF80219748FFF71DF90820FFF75F
:1014C00027FFFFF7CEFF4FF480519248FFF713F943
:1014D0000420FFF71DFF4FF400618E48FFF70BF962
:1014E0001420FFF715FFFFF7B3FF05464FF4006127
:1014F0008848FFF7FEF80420FFF70AFF4FF48051F9
:101500008448FFF7F6F82020FFF702FF284670BD59
:1015100070B505460C462846FFF7B3FF064646EA77
:1015200004012846FFF73AFF70BD70B505460C462A
:101530002846FFF7A6FF064626EA04012846FFF7DD
:101540002DFF70BD10B500211F20FFF727FF4021A0
:101550001F20FFF723FF0A20FFF7E1FE40211F2095
:10156000FFF7E3FFAD211B20FFF718FFFF211C2031
:10157000FFF714FF01211E20FFF710FF042129208F
:10158000FFF70CFF02212B20FFF708FF03212D207E
:10159000FFF704FF03211120FFF7C7FF0A20FFF721
:1015A000BEFE03211120FFF7B3FF02212620FFF723
:1015B000F5FE10BD10B500244FF480615548FFF7CB
:1015C00098F80A20FFF7ABFE4FF480615148FFF70F
:1015D00092F800BF0120FFF754FF00F03F003F28C2
:1015E000F8D100BF0120FFF74CFF10F03F0FF9D1F9
:1015F00080210020FFF7D2FE00BF0120FFF741FF4E
:101600000028FAD100210846FFF7C8FE0120FFF7A5
:1016100038FF44B20CB14FF0FF34204610BD7FB507
:10162000012140F22110FFF76FFA4FF4EC50ADF8B2
:101630000C0010208DF80F0003208DF80E0003A978
:101640003448FEF7ABFF4FF4FF60ADF80C001020FC
:101650008DF80F0003208DF80E0003A92C48FEF72B
:101660009DFF80212B48FFF746F84FF48061294801
:10167000FFF741F84FF480512648FFF73AF84FF44E
:1016800080712448FFF735F84FF400612148FFF7D7
:1016900030F84FF40070ADF80C0048208DF80F00C2
:1016A00003A91C48FEF77AFF09210620FFF78AF8F4
:1016B0004FF40070019000208DF808000C208DF888
:1016C000090001208DF80A0001A8FEF787FE4FF4FB
:1016D000C060FEF707FE17208DF8000000208DF88F
:1016E00001008DF8020001208DF803006846FEF726
:1016F000FEFD094800684FF47A72B0FBF2F1B1F1D7
:10170000807F0BD3012027E03E0000203D00002019
:1017100000140140002001401C00002021F07F4007
:10172000401E4FF0E022506150170F22002807DAC8
:1017300013071D0EFE4B00F00F04241F1D5503E080
:1017400013071C0EFB4B1C5400BF00204FF0E0227F
:10175000906107201061002008B100BFFEE7FFF78D
:1017600029FFFFF7EFFE7FBD3EB501460023009342
:1017700001930293002016E00B5C1A09D343F02476
:1017800004EA031313430DF810300B5C03F00F024F
:10179000D34304EA03131343012404EB40040DF87C
:1017A0000430431CD8B20628E6DB002004E01DF814
:1017B00000300B54431CD8B20C28F8DB3EBD10B5EA
:1017C00003212220FFF7EAFD08210920FFF7ADFEE3
:1017D00007210F20FFF7E2FD03211120FFF798FEFC
:1017E0007F210620FFF7DAFD7F210720FFF7D6FDD6
:1017F00000210120FFF7D2FD01210920FFF788FE1B
:1018000088210620FFF7CAFD26210220FFF7C6FD2A
:101810001E210120FFF7C2FD10BD2DE9F047002673
:101820000027B046B1460A20FFF779FDC24800788C
:10183000012827D17F210620FFF7B0FD00210120DC
:10184000FFF7ACFD0A20FFF71CFE00F0170604208E
:10185000FFF717FE07460520FFF713FE00F0070805
:10186000022F11D186B9B8F1000F0DD10220FFF778
:1018700008FE05460220FFF704FE0446042D03D1AE
:1018800014B901E04FF0FF390020AB490870484619
:10189000BDE8F08710B528211A20FFF77FFD082149
:1018A0000920FFF742FE03212220FFF777FD7F2169
:1018B0000620FFF773FD7F210720FFF76FFD002152
:1018C0000120FFF76BFD01210920FFF721FE882190
:1018D0000620FFF763FD93210220FFF75FFD202123
:1018E0000220FFF75BFD1E210120FFF757FD10BD11
:1018F0002DE9F047044600270026B046B1461420E3
:10190000FFF70DFD8C480078012838D17F21062093
:10191000FFF744FD00210120FFF740FD0A20FFF7FB
:10192000B0FD00F017070420FFF7ABFD06460520C9
:10193000FFF7A7FD00F00708052E1DD1E7B9B8F1A4
:10194000000F19D1002505E00220FFF79AFD605530
:10195000681CC5B2B542F7DB207861784840A178B1
:101960004840E17848402179884202D14FF000098F
:1019700007E04FF0FF3904E04FF0FF3901E04FF08E
:10198000FF394846BDE8F08770B505460F21222093
:10199000FFF704FD08210920FFF7C7FD7F2106207E
:1019A000FFF7FCFC7F210720FFF7F8FC0021012056
:1019B000FFF7F4FC01210920FFF7AAFD882106208A
:1019C000FFF7ECFC93210220FFF7E8FC70210220D6
:1019D000FFF7E4FC002405E0295D0220FFF7DEFCB0
:1019E000601CC4B2052CF7DB1E210120FFF7D6FCDA
:1019F00070BD2DE9F04100240025002600271420A9
:101A0000FFF78DFC4C48007801281DD17F2106206E
:101A1000FFF7C4FC00210120FFF7C0FC0A20FFF7FC
:101A200030FD00F017040420FFF72BFD05460520CC
:101A3000FFF727FD00F00706012D02D10CB906B90A
:101A400004E04FF0FF3701E04FF0FF373846BDE8C4
:101A5000F08170B505467F210620FFF79FFC7F21AE
:101A60000720FFF79BFC00210120FFF797FC0121D5
:101A70000920FFF74DFD84210620FFF78FFC284643
:101A8000FFF772FE002405E0295D0220FFF786FCC7
:101A9000601CC4B20C2CF7DB19210120FFF77EFC7F
:101AA00070BD70B50024002500261420FFF737FC18
:101AB00021480078012817D17F210620FFF76EFC0E
:101AC00000210120FFF76AFC0A20FFF7DAFC00F092
:101AD00040040520FFF7D5FC00F007050CB905B957
:101AE00004E04FF0FF3601E04FF0FF36304670BDA6
:101AF0002DE9F04705460E460027B846B9467F2136
:101B00000620FFF74BFC7F210720FFF747FC002151
:101B10000120FFF743FC01210920FFF7F9FC842194
:101B20000620FFF73BFC60210220FFF737FC05E0B1
:101B300018ED00E000E400E03D000020294602200E
:101B4000FFF72CFC002405E0315D0220FFF726FCA6
:101B5000601CC4B2042CF7DB0C210120FFF71EFC33
:101B60001420FFF7DCFBFA480078012812D17F210E
:101B70000620FFF713FC00210120FFF70FFC0A20CD
:101B8000FFF77FFC00F017070520FFF77AFC00F055
:101B9000070803E04FF0FF30BDE8F08717B9B8F150
:101BA000000F02D04FF0FF3919E07F210620FFF728
:101BB000F5FB7F210720FFF7F1FB00210120FFF754
:101BC000EDFB01210920FFF7A3FC84210620FFF78C
:101BD000E5FB14210120FFF7E1FB4FF00009484627
:101BE000DAE770B5002500261420FFF798FBD848E7
:101BF0000078012817D17F210620FFF7CFFB0021B5
:101C00000120FFF7CBFB0A20FFF73BFC00F0170594
:101C10000920FFF736FC00F008040DB904B104E018
:101C20004FF0FF3601E04FF0FF36304670BD10B583
:101C300004460F212220FFF7B1FB7F210620FFF78A
:101C4000ADFB7F210720FFF7A9FB00210120FFF753
:101C5000A5FB01210920FFF75BFC84210620FFF78B
:101C60009DFB30210220FFF799FB21460220FFF760
:101C700095FB1E210120FFF791FB10BD2DE9F047D8
:101C8000054600270026B046B1461420FFF747FB63
:101C9000AF480078012833D17F210620FFF77EFB73
:101CA00000210120FFF77AFB0A20FFF7EAFB00F092
:101CB00017070520FFF7E5FB00F007080420FFF7F2
:101CC000E0FB0646CFB9B8F1000F16D1102E14D1A3
:101CD000002403E000202855601CC4B2102CF9DB5E
:101CE000002405E00220FFF7CCFB2855601CC4B29D
:101CF000B442F7DB4FF0000904E04FF0FF3901E098
:101D00004FF0FF394846BDE8F0872DE9F04705461A
:101D10000E460027B846B9460024A2467F21062079
:101D2000FFF73CFB7F210720FFF738FB0021012054
:101D3000FFF734FB01210920FFF7EAFB8821062089
:101D4000FFF72CFBA0210220FFF728FB29460220E9
:101D5000FFF724FB1E210120FFF720FB1420FFF7D3
:101D6000DEFA7B48007801282CD17F210620FFF77E
:101D700015FB7F210720FFF711FB00210120FFF752
:101D80000DFB0A20FFF77DFB00F017070520FFF78A
:101D900078FB00F007090420FFF773FB8046B9F1D8
:101DA000040F12D18FB9B8F1010F0ED10220FFF745
:101DB00068FB00F00F000A2800D106E04FF0FF306A
:101DC000BDE8F0874FF0FF30FAE77F210620FFF7EC
:101DD000E5FA7F210720FFF7E1FA00210120FFF754
:101DE000DDFA01210920FFF793FB88210620FFF788
:101DF000D5FA002405E0315D0220FFF7CFFA601C20
:101E0000C4B2102CF7DB1E210120FFF7C7FA5046A1
:101E1000D6E72DE9F04100240025002600271420F4
:101E2000FFF77DFA4A480078012825D17F21062056
:101E3000FFF7B4FA00210120FFF7B0FA0A20FFF7FC
:101E400020FB00F017040520FFF71BFB00F007063E
:101E50000420FFF716FB0546042E0FD174B9012D9F
:101E60000CD10220FFF70DFB00F00F000A2800D173
:101E700004E04FF0FF3701E04FF0FF373846BDE890
:101E8000F08110B50F212220FFF788FA7F2106206C
:101E9000FFF784FA7F210720FFF780FA0021012055
:101EA000FFF77CFA01210920FFF732FB9021062081
:101EB000FFF774FA50210220FFF770FA0021022088
:101EC000FFF76CFA1E210120FFF768FA10BD10B56C
:101ED00000241420FFF723FA1D480078012808D1B8
:101EE0007F210620FFF75AFA00210120FFF756FA5A
:101EF00001E04FF0FF34204610BD10B5FFF75AFB4C
:101F0000401C01D1401E10BDFFF71CFB0020FAE76A
:101F100010B5FFF754FCFFF780FC401C01D1801E78
:101F200010BD0020FCE710B50446FFF7B3FC2046C7
:101F3000FFF7DEFC401C01D1C01E10BD2046FFF79C
:101F400023FDFFF756FD401C04D1001FF5E70000FC
:101F50003D0000200020F0E7FEB506460D460020BB
:101F60000090019002902F48FFF7DDFF10B16FF055
:101F70000300FEBD002404E0285D0DF80400601C91
:101F8000C4B2062CF8DB6846FFF763FDFFF789FD56
:101F9000401C01D1401FECE722493046FFF7A8FD65
:101FA000FFF71FFE401C01D1801FE2E70020E0E7A1
:101FB00070B504460D4629462046FFF7A6FE401C94
:101FC00001D1C01F70BDFFF724FF401C02D16FF08C
:101FD0000700F7E70020F5E770B505460C462846F0
:101FE000FFF725FE2046FFF749FE401C02D16FF0A7
:101FF000080070BD0020FCE710B5FFF742FFFFF7B7
:1020000066FF401C02D16FF0090010BD0020FCE704
:102010000146002003E0034A125C0A54401C0428D5
:10202000F9DB70473800002008B501212020FEF7B9
:102030006BFD4FF46840ADF8000003208DF80200FE
:1020400010208DF8030069460448FEF7A7FA4FF404
:1020500068410248FEF74FFB08BD00000014014034
:1020600008B501211020FEF74FFD4FF44070ADF888
:10207000000003208DF8020010208DF8030069464F
:102080000448FEF78BFA4FF440710248FEF733FB29
:1020900008BD00000010014008B501211020FEF726
:1020A00033FD4FF44070ADF8000003208DF80200BE
:1020B00010208DF8030069460448FEF76FFA4FF4CC
:1020C00040710248FEF717FB08BD000000100140F8
:1020D00008B501214FF48270FEF716FD48208DF8F7
:1020E000030003208DF802000420ADF800006946CB
:1020F0000148FEF753FA08BD0020014008B5002151
:10210000009104E0BDF80010491C89B2009100EB79
:10211000C00101EB0011BDF80020B2EB810FF1D33B
:1021200008BD08B501214FF4B470FEF7EDFC4FF681
:10213000FF70ADF8000010208DF8030003208DF82B
:1021400002006946FA48FEF729FA4FF48040ADF8DC
:1021500000006946F748FEF721FA4FF40050ADF849
:1021600000006946F348FEF719FA0220ADF80000B6
:102170006946F148FEF712FA4FF40040ADF800004E
:102180006946EC48FEF70AFA2020ADF800006946DF
:10219000EA48FEF703FA08BD4FF40041E54A5161F1
:1021A00049105161E2490C3108600221E24A1432BF
:1021B0001160121F11608903DE4A116170474FF4EC
:1021C0000041DC4A516149101161D9490C31086064
:1021D0000221D94A14321160121F11608903D54AB5
:1021E0001161704700BFD249091D09680021D04A1A
:1021F000121D1160111F09680021121F1160111DAD
:10220000096841F08831121D1160111F096841F001
:102210008831121F1160C6490C3109684FF6FF72F0
:102220001143C34A0C32116000BF4FF40041C14A50
:1022300051614910116149105161BD490831096866
:1022400088B2511411618900116100BFB849091D9C
:1022500009680021B64A121D1160111F096800218A
:10226000121F1160111D096841F03331121D1160F8
:10227000111F096841F03331121F116000BF704710
:1022800000BFAB49091D09680021A94A121D116050
:10229000111F09680021121F1160111D096841F00A
:1022A0008831121D1160111F096841F08831121F19
:1022B00011609F490C3109684FF6FF7211439C4A27
:1022C0000C32116000BF4FF400419A4A516149102D
:1022D00051614910516196490831096888B2511419
:1022E00011618900116100BF9149091D0968002130
:1022F0008F4A121D1160111F09680021121F116001
:10230000111D096841F03331121D1160111F096858
:1023100041F03331121F116000BF704710B5044601
:102320000B462046FFF738FF1846FFF748FF10BD61
:1023300010B503461846FFF72FFFFFF753FF04467B
:10234000204610BD30B503464FF4F0752A20FFF744
:1023500023FF0020FFF733FF0020FFF730FF78480E
:102360000068C0F30F20FFF72AFF75490878FFF7D0
:1023700026FF2B20FFF710FF0020FFF720FF002093
:10238000FFF71DFF6F480068C0F30F20FFF717FF2E
:102390006C490878FFF713FF2C20FFF7FDFE08E0DB
:1023A000002403E098B2FFF70AFF641CB4F5887FAD
:1023B000F8D32800A5F10105F2D130BD00B52020E9
:1023C0005E49143108600520FFF798FE20205B4924
:1023D000103108600520FFF791FE00BD30B50346BF
:1023E0000C4615462A20FFF7D7FEC3F30F20FFF750
:1023F000E6FED8B2FFF7E3FE51480068C0F30F20B5
:10240000FFF7DDFE4E490878FFF7D9FE2B20FFF7D6
:10241000C3FEC4F30F20FFF7D2FEE0B2FFF7CFFEFA
:1024200048480068C0F30F20FFF7C9FE4549087807
:10243000FFF7C5FE2C20FFF7AFFEA8B2FFF7BFFEE7
:1024400030BD2DE9F04F06460F4691461D46DDF89A
:1024500024B0B6F5EC7F02D8B7F5847F01D9BDE88A
:10246000F08F2A20FFF798FEC6F30F20FFF7A7FE94
:10247000F0B2FFF7A4FE0121C1EB55013144C1F3D5
:102480000F20FFF79CFE0121C1EB55013144C8B27A
:10249000FFF795FE2B20FFF77FFEC7F30F20FFF716
:1024A0008EFEF8B2FFF78BFE7919491EC1F30F209B
:1024B000FFF785FE7919491EC8B2FFF780FE2C2070
:1024C000FFF76AFEA9F12009BBF1000F44D10024F7
:1024D0002BE00C2D07D109EB49001B4901EB8000D3
:1024E00010F804A004E0194800EB091010F804A04B
:1024F0004FF0000815E01AF0010F07D0391906EB6C
:102500000800134A1288FFF769FF06E0391906EB45
:102510000800104A1288FFF761FF4FEA5A0A08F1D3
:102520000108B8EB550FE6D3641CAC42D1D33BE0B5
:10253000001801400020014000140140000C01403F
:102540004000002054000020782B0008EC2F0008E9
:102550006600002068000020002423E00C2D07D135
:1025600009EB4900FE4901EB800010F804A004E0EB
:10257000FC4800EB091010F804A04FF000080DE033
:102580001AF0010F06D0391906EB0800F64A128836
:10259000FFF724FF4FEA5A0A08F10108B8EB550F7C
:1025A000EED3641CAC42D9D300BF58E72DE9F04309
:1025B00005460E4690462D013601002420E0EB48EA
:1025C00000EB481030F81490002715E019F4004F84
:1025D00006D03119E819E44A1288FFF7FFFE05E03A
:1025E0003119E819E24A1288FFF7F8FE4FF6FF703A
:1025F00000EA4909781C87B2102FE7DB601C84B21F
:10260000102CDCDBBDE8F08378B505460E46144699
:1026100018E0B5F5EC7F01D900251036B6F5847FBA
:1026200006D90020054606464FF6FF70FFF78AFEE2
:10263000002000902278102331462846FFF701FF42
:102640000835641C20780028E3D178BD2DE9F047D7
:1026500004460D4616461F46B44208D1BD4206D177
:10266000C148028829462046FFF7B8FE48E0A6EB9D
:102670000400791B01D40A4600E04A42002801DB2D
:10268000034600E043429A421DDDBD4205D9AA46F9
:102690003D465746A24634465646A94610E0A9EBA9
:1026A0000500311B4843791BB0FBF1F000EB040837
:1026B000AD48028849464046FFF790FE09F10109FE
:1026C000B945ECD31CE0B44205D9AA463D4657466D
:1026D000A24634465646A04610E0A8EB0400791BFB
:1026E0004843311BB0FBF1F000EB05099E4802881E
:1026F00049464046FFF772FE08F10108B045ECD9A3
:10270000BDE8F08700B564234FF4AF7219465F202F
:10271000FFF79CFFF0235F2264211046FFF796FF2E
:10272000F0234FF4AF7264211046FFF78FFFF023C0
:102730004FF4AF7219465F20FFF788FF00BD00B568
:1027400089B001A8FFF764FC9DF8040000F00F00B9
:10275000092808DD9DF8040000F00F005730C0B2D2
:102760008DF8140006E09DF8040000F00F003030F2
:102770008DF814009DF804000921B1EB101F09DA4F
:102780009DF804000A21C1EB10106130C0B28DF831
:10279000150006E09DF80400302101EB10108DF8C3
:1027A00015009DF8050000F00F00092808DD9DF8D0
:1027B000050000F00F005730C0B28DF8160006E09B
:1027C0009DF8050000F00F0030308DF816009DF8E0
:1027D00005000921B1EB101F09DA9DF805000A2157
:1027E000C1EB10106130C0B28DF8170006E09DF803
:1027F0000500302101EB10108DF817009DF8060040
:1028000000F00F00092808DD9DF8060000F00F0019
:102810005730C0B28DF8180006E09DF8060000F0B1
:102820000F0030308DF818009DF806000921B1EB3B
:10283000101F09DA9DF806000A21C1EB1010613063
:10284000C0B28DF8190006E09DF80600302101EBBA
:1028500010108DF819009DF8070000F00F000928EE
:1028600008DD9DF8070000F00F005730C0B28DF86A
:102870001A0006E09DF8070000F00F0030308DF8D8
:102880001A009DF807000921B1EB101F09DA9DF825
:1028900007000A21C1EB10106130C0B28DF81B0097
:1028A00006E09DF80700302101EB10108DF81B00A9
:1028B00005AA90219E20FFF7A7FE09B000BD10B524
:1028C000FFF72FFCFFF77AFDE220FFF765FC2320DE
:1028D000FFF775FC0220FFF772FC0420FFF76FFC86
:1028E000E020FFF759FC0120FFF769FC0120FFF70A
:1028F00005FCE020FFF750FC0320FFF760FC0520FB
:10290000FFF7FCFBE420FFF713FD0120FFF744FC79
:102910000520FFF7F3FBE620FFF73EFC0120FFF761
:102920004EFC3320FFF74BFC3220FFF748FCB02071
:10293000FFF732FC1820FFF742FC0020FFF73FFCB6
:102940000C480088C0F30720FFF739FC09490878D4
:10295000FFF735FC08480088C0F307200EE00000B0
:10296000782B0008EC2F000866000020DC350008FA
:10297000680000204000002054000020FFF71FFCEA
:1029800049490878FFF71BFC0020FFF718FCB4202A
:10299000FFF702FC45480088C0F30720FFF70FFC53
:1029A00042490878FFF70BFC41480088C0F3072034
:1029B000FFF705FC3E490878FFF701FC3D48007829
:1029C000FFF7FDFB3C480088C0F30720FFF7F7FB4B
:1029D00039490878FFF7F3FB0020FFF7F0FBB6203A
:1029E000FFF7DAFB35480088C0F30720FFF7E7FB65
:1029F00032490878FFF7E3FB31480088C0F307202D
:102A0000FFF7DDFB2E490878FFF7D9FB2D4800784A
:102A1000FFF7D5FB2C480088C0F30720FFF7CFFB5A
:102A200029490878FFF7CBFBF020FFF7B5FB03201F
:102A3000FFF7C5FB2120FFF7AFFBBC20FFF7ACFB86
:102A40008020FFF7BCFB8020FFF7B9FB8020FFF759
:102A5000B6FB0120FFF7B3FB0520FFF74FFB4FF458
:102A60007840FFF76FFC2920FFF796FBBE20FFF7A9
:102A700093FB0620FFF7A3FBFF20FFF7A0FB01203D
:102A8000FFF79DFBF020FFF79AFB0020FFF797FB75
:102A90000020FFF794FB4FF6FF70FFF753FC4FF455
:102AA00078400A49088010BD5400002044000020EE
:102AB00048000020500000204C000020580000205A
:102AC0005C00002064000020600000206600002000
:102AD0000948804709480047FEE7FEE7FEE7FEE7B2
:102AE000FEE7FEE7FEE7FEE7FEE7FEE704480549EE
:102AF000054A064B70470000BD1000083101000870
:102B000098010020980700209803002098030020D7
:102B100070477047704770477047754600F028F857
:102B2000AE4605006946534620F00700854618B0BA
:102B300020B5FFF7DBFFBDE820404FF000064FF067
:102B400000074FF000084FF0000B21F00701AC46E2
:102B5000ACE8C009ACE8C009ACE8C009ACE8C00901
:102B60008D4670470446AFF300802046FDF727FBF3
:102B70000048704734010020000000000000000001
:102B80000000000000000404040404040004000029
:102B900000140A0A000000000000000000001414E5
:102BA0003F140A3F0A0A000000041E1505060C1413
:102BB000150F0400000012150D0A142C2A12000033
:102BC0000000040A0A1E1515093600000002020161
:102BD000000000000000000000201008080808089D
:102BE0000810200000020408080808080804020071
:102BF00000000004150E0E1504000000000004047F
:102C0000041F040404000000000000000000000095
:102C10000002020100000000001F00000000000090
:102C20000000000000000000000200000010080882
:102C3000080404020202010000000E11111111111A
:102C4000110E00000000040604040404040E000039
:102C500000000E1111080402011F000000000E11F7
:102C6000100C1010110E00000000080C0A0A091EBA
:102C70000818000000001F01010F1010110E0000C5
:102C800000000E09010F1111110E000000001F09B4
:102C9000080404040404000000000E11110E1111B8
:102CA000110E000000000E1111111E10120E000076
:102CB000000000000400000000040000000000000C
:102CC00000040000000404000020100804020408AE
:102CD00010200000000000001F00001F0000000086
:102CE00000020408102010080402000000000E1169
:102CF000110804040004000000000E111915151D30
:102D0000011E0000000004040C0A0A1E1233000019
:102D100000000F12120E1212120F000000001E11FE
:102D200001010101110E000000000F121212121217
:102D3000120F000000001F120A0E0A02121F0000EC
:102D400000001F120A0E0A020207000000001C12F7
:102D500001013911120C000000003312121E121270
:102D60001233000000001F0404040404041F0000C8
:102D700000003E080808080808090700000037128C
:102D80000A060A0A123700000000070202020202C5
:102D9000223F000000001B1B1B1B15151515000012
:102DA00000003B1216161A1A1217000000000E112E
:102DB00011111111110E000000000F12120E02026B
:102DC0000207000000000E1111111117190E180052
:102DD00000000F12120E0A121237000000001E111E
:102DE00001060810110F000000001F150404040460
:102DF000040E00000000331212121212120C000016
:102E000000003312120A0A0C040400000000151519
:102E1000150E0A0A0A0A000000001B0A0A04040A26
:102E20000A1B000000001B0A0A040404040E000030
:102E300000001F0908040402121F0000001C040403
:102E40000404040404041C00000202020404080830
:102E500008100000000E08080808080808080E00FE
:102E600000040A0000000000000000000000000054
:102E7000000000000000003F00040000000000000F
:102E80000000000000000000000C121C123C0000BA
:102E900000000302020E1212120E000000000000D9
:102EA000001C1202021C000000001810101C12125C
:102EB000123C000000000000000C121E021C00006A
:102EC00000003804041E0404041E0000000000007A
:102ED000003C120C021E221C00000302020E121201
:102EE000123700000000040000060404040E000075
:102EF00000000800000C080808080807000003028A
:102F0000023A0A0E12370000000007040404040409
:102F1000041F000000000000000F1515151500002B
:102F200000000000000F1212123700000000000025
:102F3000000C1212120C000000000000000F121210
:102F4000120E020700000000001C1212121C1038A2
:102F500000000000001B0602020700000000000045
:102F6000001E020C101E000000000004040E0404E9
:102F70000418000000000000001B1212123C0000A8
:102F8000000000000037120A0C04000000000000DE
:102F90000015150E0A0A000000000000001B0A04BC
:102FA0000A1B0000000000000037120A0C04040392
:102FB00000000000001E0804041E0000001808089D
:102FC000080408080808180008080808080808087D
:102FD00008080808000604040408040404040600A1
:102FE00002251800000000000000000000000000A2
:102FF00000000000000000000000000000000008C9
:1030000008080808080800001818000000486C2488
:10301000120000000000000000000000000000247A
:1030200024247F1212127F12121200000000081CCA
:103030002A2A0A0C1828282A2A1C0808000000221C
:10304000251515152A585454542200000000000C70
:103050001212120A76252911916E0000000606044C
:1030600003000000000000000000000000402010ED
:103070001008080808080810102040000002040882
:1030800008101010101010080804020000000000C2
:1030900008086B1C1C6B0808000000000000000002
:1030A000080808087F080808080000000000000061
:1030B00000000000000000000606040300000000FD
:1030C00000000000FE000000000000000000000002
:1030D0000000000000000000060600000000804024
:1030E000402020101008080404020200000000180C
:1030F000244242424242424224180000000000089A
:103100000E08080808080808083E00000000003CF7
:103110004242422020100804427E00000000003C91
:103120004242201820404042221C000000000020A3
:103130003028242422227E20207800000000007EF7
:103140000202021A26404042221C00000000003801
:103150002402021A26424242241800000000007E87
:103160002222101008080808080800000000003C8F
:103170004242422418244242423C0000000000180F
:103180002442424264584040241C000000000000D9
:1031900000001818000000001818000000000000CF
:1031A00000000008000000000008080400000040C3
:1031B0002010080402040810204000000000000055
:1031C00000007F0000007F000000000000000002FF
:1031D0000408102040201008040200000000003CF9
:1031E0004242464020101000181800000000001C49
:1031F000225A555555552D42221C0000000000084A
:1032000008181414243C224242E700000000001F6A
:103210002222221E22424242221F00000000007C85
:103220004242010101010142221C00000000001F76
:103230002242424242424242221F00000000003F1E
:103240004212121E12120242423F00000000003FD2
:103250004212121E12120202020700000000003C7D
:103260002222010101712122221C0000000000E73E
:10327000424242427E42424242E700000000003E9B
:103280000808080808080808083E00000000007C3C
:1032900010101010101010101010110F00000077F7
:1032A00022120A0E0A1212222277000000000007E2
:1032B0000202020202020202427F000000000077C6
:1032C000363636362A2A2A2A2A6B0000000000E306
:1032D00046464A4A52525262624700000000001CB1
:1032E0002241414141414141221C00000000003F78
:1032F000424242423E020202020700000000001C5D
:103300002241414141414D53321C60000000003FC9
:103310004242423E1212222242C700000000007CBC
:103320004242020418204042423E00000000007F5A
:103330004908080808080808081C0000000000E701
:103340004242424242424242423C0000000000E708
:103350004242222424141418080800000000006BC4
:10336000494949495555362222220000000000E70C
:10337000422424181818242442E700000000007793
:103380002222141408080808081C00000000007E0F
:103390002120101008040442423F00000078080871
:1033A0000808080808080808080878000000020251
:1033B000040408080810102020204040001E1010AF
:1033C000101010101010101010101E0000384400C3
:1033D00000000000000000000000000000000000ED
:1033E0000000000000000000000000FF00060800D0
:1033F00000000000000000000000000000000000CD
:103400000000003C4278444242FC000000000003FF
:103410000202021A26424242261A00000000000060
:10342000000000384402020244380000000000603E
:10343000404040784442424264D80000000000000E
:103440000000003C427E0202423C0000000000F00E
:103450008808087E08080808083E000000000000F0
:103460000000007C22221C023C42423C000000037F
:103470000202023A4642424242E700000000000CCB
:103480000C00000E08080808083E0000000000308C
:1034900030000038202020202020221E00000003C1
:1034A00002020272120A1612227700000000000EB9
:1034B0000808080808080808083E00000000000086
:1034C0000000007F9292929292B7000000000000EC
:1034D0000000003B4642424242E70000000000007C
:1034E0000000003C42424242423C0000000000001A
:1034F0000000001B26424242221E0207000000007C
:103500000000007844424242447840E0000000005D
:10351000000000774C040404041F000000000000B9
:103520000000007C42023C40423E000000000000DF
:103530000008083E080808080830000000000000E5
:10354000000000634242424262DC000000000000D2
:10355000000000E7422424140808000000000000D6
:10356000000000EB494955552222000000000000F0
:103570000000007624181818246E000000000000D7
:10358000000000E742242414180808070000000087
:103590000000007E22100808447E000000C02020A9
:1035A00020202010202020202020C00010101010EB
:1035B0001010101010101010101010100006080835
:1035C0000808081008080808080806000C32C2009D
:1035D000000000000000000000000000402040202B
:1035E0004020FC2340FC4020FE770068406840A05B
:1035F000FC23402040204020FE2F002020102010DF
:1036000020102010FEFD201060107038B034A85437
:1036100028512692241420102010201000000000B1
:10362000000000000000000000000000000000009A
:10363000000000000000000000000000000000008A
:10364000000000000000000000000000000000007A
:10365000000000000000000000000000000000006A
:104250000000000000000000000000007C42000898
:10426000000000206C0000006C010008E84200081B
:104270006C0000202C07000088010008FFFFFFFFF2
:10428000FFFF00000000010203040102030406070F
:10429000080902040608000000A24A040000000009
:1042A00000000000010203040607080900000000E6
:1042B000000000000000000000000000DF0100001E
:1042C000130200002B000000080000000A0000009C
:1042D0000F010000200100000C000000040000009D
:0842E0000A0000F8FFFF0000D6
:0400000508002AD1F4
:00000001FF
