:03000000020003F8
:0C000300787FE4F6D8FD75811202004AF7
:1000E5003F065B4F666D7D077F6F777C395E797163
:0900F5007638373E735C400000D0
:0E00FE000112000909FEFDFBF7EFDFBF7F7F57
:1000C700D3EF9400EE940040147D727C00ED1D7018
:0D00D700011CED4C70F7EF1F70E61E80E37A
:0100E40022F9
:10008F007508FEE4F512850880AF087801EF088047
:10009F000123D8FDF508D2A7C2A7E5129000E5937A
:1000AF00F580D2A6C2A67F027E001200C70512E518
:0800BF0012C3940840D080C870
:10000F0002008FE493A3F8E493A34003F68001F278
:10001F0008DFF48029E493A3F85407240CC8C333F2
:10002F00C4540F4420C8834004F456800146F6DFC1
:10003F00E4800B01020408102040809000FEE47E53
:10004F00019360BCA3FF543F30E509541FFEE493B6
:10005F00A360010ECF54C025E060A840B8E493A37D
:10006F00FAE493A3F8E493A3C8C582C8CAC583CAA8
:10007F00F0A3C8C582C8CAC583CADFE9DEE780BE60
:01010C0000F2
:00000001FF
